{
  "contractName": "Bank",
  "abi": [
    {
      "anonymous": false,
      "inputs": [
        {
          "indexed": false,
          "internalType": "uint256",
          "name": "amount",
          "type": "uint256"
        },
        {
          "indexed": true,
          "internalType": "address",
          "name": "depositedTo",
          "type": "address"
        }
      ],
      "name": "depositDone",
      "type": "event"
    },
    {
      "inputs": [],
      "name": "deposit",
      "outputs": [
        {
          "internalType": "uint256",
          "name": "",
          "type": "uint256"
        }
      ],
      "stateMutability": "payable",
      "type": "function"
    },
    {
      "inputs": [
        {
          "internalType": "uint256",
          "name": "amount",
          "type": "uint256"
        }
      ],
      "name": "withdraw",
      "outputs": [
        {
          "internalType": "uint256",
          "name": "",
          "type": "uint256"
        }
      ],
      "stateMutability": "nonpayable",
      "type": "function"
    },
    {
      "inputs": [],
      "name": "getBalance",
      "outputs": [
        {
          "internalType": "uint256",
          "name": "",
          "type": "uint256"
        }
      ],
      "stateMutability": "view",
      "type": "function"
    },
    {
      "inputs": [
        {
          "internalType": "address",
          "name": "recipient",
          "type": "address"
        },
        {
          "internalType": "uint256",
          "name": "amount",
          "type": "uint256"
        }
      ],
      "name": "transfer",
      "outputs": [],
      "stateMutability": "nonpayable",
      "type": "function"
    }
  ],
  "bytecode": "0x608060405234801561001057600080fd5b50336000806101000a81548173ffffffffffffffffffffffffffffffffffffffff021916908373ffffffffffffffffffffffffffffffffffffffff160217905550610936806100606000396000f3fe60806040526004361061003f5760003560e01c806312065fe0146100445780632e1a7d4d1461006f578063a9059cbb146100ac578063d0e30db0146100d5575b600080fd5b34801561005057600080fd5b506100596100f3565b6040516100669190610618565b60405180910390f35b34801561007b57600080fd5b5061009660048036038101906100919190610664565b61013a565b6040516100a39190610618565b60405180910390f35b3480156100b857600080fd5b506100d360048036038101906100ce91906106ef565b6102c5565b005b6100dd610463565b6040516100ea9190610618565b60405180910390f35b6000600160003373ffffffffffffffffffffffffffffffffffffffff1673ffffffffffffffffffffffffffffffffffffffff16815260200190815260200160002054905090565b60008060009054906101000a900473ffffffffffffffffffffffffffffffffffffffff1673ffffffffffffffffffffffffffffffffffffffff163373ffffffffffffffffffffffffffffffffffffffff161461019557600080fd5b81600160003373ffffffffffffffffffffffffffffffffffffffff1673ffffffffffffffffffffffffffffffffffffffff1681526020019081526020016000205410156101e157600080fd5b81600160003373ffffffffffffffffffffffffffffffffffffffff1673ffffffffffffffffffffffffffffffffffffffff1681526020019081526020016000206000828254610230919061075e565b925050819055503373ffffffffffffffffffffffffffffffffffffffff166108fc839081150290604051600060405180830381858888f1935050505015801561027d573d6000803e3d6000fd5b50600160003373ffffffffffffffffffffffffffffffffffffffff1673ffffffffffffffffffffffffffffffffffffffff168152602001908152602001600020549050919050565b80600160003373ffffffffffffffffffffffffffffffffffffffff1673ffffffffffffffffffffffffffffffffffffffff168152602001908152602001600020541015610347576040517f08c379a000000000000000000000000000000000000000000000000000000000815260040161033e906107ef565b60405180910390fd5b8173ffffffffffffffffffffffffffffffffffffffff163373ffffffffffffffffffffffffffffffffffffffff16036103b5576040517f08c379a00000000000000000000000000000000000000000000000000000000081526004016103ac9061085b565b60405180910390fd5b6000600160003373ffffffffffffffffffffffffffffffffffffffff1673ffffffffffffffffffffffffffffffffffffffff16815260200190815260200160002054905061040433848461054e565b8181610410919061075e565b600160003373ffffffffffffffffffffffffffffffffffffffff1673ffffffffffffffffffffffffffffffffffffffff168152602001908152602001600020541461045e5761045d61087b565b5b505050565b600034600160003373ffffffffffffffffffffffffffffffffffffffff1673ffffffffffffffffffffffffffffffffffffffff16815260200190815260200160002060008282546104b491906108aa565b925050819055503373ffffffffffffffffffffffffffffffffffffffff167f55b8d2fc1aaf27628691a3336b517d7b40bee36ba595a24e893d1e872afb82d1346040516105019190610618565b60405180910390a2600160003373ffffffffffffffffffffffffffffffffffffffff1673ffffffffffffffffffffffffffffffffffffffff16815260200190815260200160002054905090565b80600160008573ffffffffffffffffffffffffffffffffffffffff1673ffffffffffffffffffffffffffffffffffffffff168152602001908152602001600020600082825461059d919061075e565b9250508190555080600160008473ffffffffffffffffffffffffffffffffffffffff1673ffffffffffffffffffffffffffffffffffffffff16815260200190815260200160002060008282546105f391906108aa565b92505081905550505050565b6000819050919050565b610612816105ff565b82525050565b600060208201905061062d6000830184610609565b92915050565b600080fd5b610641816105ff565b811461064c57600080fd5b50565b60008135905061065e81610638565b92915050565b60006020828403121561067a57610679610633565b5b60006106888482850161064f565b91505092915050565b600073ffffffffffffffffffffffffffffffffffffffff82169050919050565b60006106bc82610691565b9050919050565b6106cc816106b1565b81146106d757600080fd5b50565b6000813590506106e9816106c3565b92915050565b6000806040838503121561070657610705610633565b5b6000610714858286016106da565b92505060206107258582860161064f565b9150509250929050565b7f4e487b7100000000000000000000000000000000000000000000000000000000600052601160045260246000fd5b6000610769826105ff565b9150610774836105ff565b9250828210156107875761078661072f565b5b828203905092915050565b600082825260208201905092915050565b7f42616c616e6365206e6f742073756666696369656e7400000000000000000000600082015250565b60006107d9601683610792565b91506107e4826107a3565b602082019050919050565b60006020820190508181036000830152610808816107cc565b9050919050565b7f446f6e2774207472616e73666572206d6f6e657920746f20796f757273656c66600082015250565b6000610845602083610792565b91506108508261080f565b602082019050919050565b6000602082019050818103600083015261087481610838565b9050919050565b7f4e487b7100000000000000000000000000000000000000000000000000000000600052600160045260246000fd5b60006108b5826105ff565b91506108c0836105ff565b9250827fffffffffffffffffffffffffffffffffffffffffffffffffffffffffffffffff038211156108f5576108f461072f565b5b82820190509291505056fea26469706673582212209e52edda1a17226a56a7d7dbde3966fbea670e9e11863416d9c3f0609bdaad5864736f6c634300080f0033",
  "immutableReferences": {},
  "source": "// SPDX-License-Identifier: UNLICENS\r\npragma solidity ^0.8.0;\r\npragma abicoder v2;\r\nimport \"./Ownable.sol\";\r\n\r\ncontract Bank is Ownable {\r\n    \r\n    mapping(address => uint) balance;\r\n    address[] customers;\r\n    \r\n    event depositDone(uint amount, address indexed depositedTo);\r\n    \r\n    function deposit() public payable returns (uint)  {\r\n        balance[msg.sender] += msg.value;\r\n        emit depositDone(msg.value, msg.sender);\r\n        return balance[msg.sender];\r\n    }\r\n    \r\n    function withdraw(uint amount) public onlyOwner returns (uint){\r\n        require(balance[msg.sender] >= amount);\r\n        balance[msg.sender] -= amount;\r\n        payable(msg.sender).transfer(amount);\r\n        return balance[msg.sender];\r\n    }\r\n    \r\n    function getBalance() public view returns (uint){\r\n        return balance[msg.sender];\r\n    }\r\n    \r\n    function transfer(address recipient, uint amount) public {\r\n        require(balance[msg.sender] >= amount, \"Balance not sufficient\");\r\n        require(msg.sender != recipient, \"Don't transfer money to yourself\");\r\n        \r\n        uint previousSenderBalance = balance[msg.sender];\r\n        \r\n        _transfer(msg.sender, recipient, amount);\r\n        \r\n        assert(balance[msg.sender] == previousSenderBalance - amount);\r\n    }\r\n    \r\n    function _transfer(address from, address to, uint amount) private {\r\n        balance[from] -= amount;\r\n        balance[to] += amount;\r\n    }\r\n    \r\n}",
  "sourcePath": "C:\\Users\\kaz\\OneDrive - #AskBlockchain\\contracts\\contracts\\Wallet.sol",
  "compiler": {
    "name": "solc",
    "version": "0.8.15+commit.e14f2714.Emscripten.clang"
  },
  "schemaVersion": "3.4.8",
  "updatedAt": "2022-12-07T19:48:09.843Z",
  "devdoc": {
    "kind": "dev",
    "methods": {},
    "version": 1
  },
  "userdoc": {
    "kind": "user",
    "methods": {},
    "version": 1
  }
}