{
  "contractName": "HelloWorld",
  "abi": [
    {
      "inputs": [
        {
          "internalType": "uint256",
          "name": "",
          "type": "uint256"
        }
      ],
      "name": "ownableArray",
      "outputs": [
        {
          "internalType": "contract Ownable",
          "name": "",
          "type": "address"
        }
      ],
      "stateMutability": "view",
      "type": "function"
    },
    {
      "inputs": [],
      "name": "own",
      "outputs": [],
      "stateMutability": "nonpayable",
      "type": "function"
    },
    {
      "inputs": [
        {
          "internalType": "string",
          "name": "newMessage",
          "type": "string"
        }
      ],
      "name": "setMessage",
      "outputs": [],
      "stateMutability": "payable",
      "type": "function"
    },
    {
      "inputs": [],
      "name": "hello",
      "outputs": [
        {
          "internalType": "string",
          "name": "",
          "type": "string"
        }
      ],
      "stateMutability": "view",
      "type": "function"
    }
  ],
  "bytecode": "0x60806040526040518060400160405280600b81526020017f48656c6c6f20576f726c64000000000000000000000000000000000000000000815250600090816200004a9190620002d9565b503480156200005857600080fd5b50620003c0565b600081519050919050565b7f4e487b7100000000000000000000000000000000000000000000000000000000600052604160045260246000fd5b7f4e487b7100000000000000000000000000000000000000000000000000000000600052602260045260246000fd5b60006002820490506001821680620000e157607f821691505b602082108103620000f757620000f662000099565b5b50919050565b60008190508160005260206000209050919050565b60006020601f8301049050919050565b600082821b905092915050565b600060088302620001617fffffffffffffffffffffffffffffffffffffffffffffffffffffffffffffffff8262000122565b6200016d868362000122565b95508019841693508086168417925050509392505050565b6000819050919050565b6000819050919050565b6000620001ba620001b4620001ae8462000185565b6200018f565b62000185565b9050919050565b6000819050919050565b620001d68362000199565b620001ee620001e582620001c1565b8484546200012f565b825550505050565b600090565b62000205620001f6565b62000212818484620001cb565b505050565b5b818110156200023a576200022e600082620001fb565b60018101905062000218565b5050565b601f82111562000289576200025381620000fd565b6200025e8462000112565b810160208510156200026e578190505b620002866200027d8562000112565b83018262000217565b50505b505050565b600082821c905092915050565b6000620002ae600019846008026200028e565b1980831691505092915050565b6000620002c983836200029b565b9150826002028217905092915050565b620002e4826200005f565b67ffffffffffffffff8111156200030057620002ff6200006a565b5b6200030c8254620000c8565b620003198282856200023e565b600060209050601f8311600181146200035157600084156200033c578287015190505b620003488582620002bb565b865550620003b8565b601f1984166200036186620000fd565b60005b828110156200038b5784890151825560018201915060208501945060208101905062000364565b86831015620003ab5784890151620003a7601f8916826200029b565b8355505b6001600288020188555050505b505050505050565b61095280620003d06000396000f3fe60806040526004361061003f5760003560e01c806319ff1d2114610044578063368b87721461006f57806376f67a9c1461008b57806399cdee0e146100c8575b600080fd5b34801561005057600080fd5b506100596100df565b60405161006691906102fb565b60405180910390f35b61008960048036038101906100849190610466565b610171565b005b34801561009757600080fd5b506100b260048036038101906100ad91906104e5565b610184565b6040516100bf9190610591565b60405180910390f35b3480156100d457600080fd5b506100dd6101c3565b005b6060600080546100ee906105db565b80601f016020809104026020016040519081016040528092919081815260200182805461011a906105db565b80156101675780601f1061013c57610100808354040283529160200191610167565b820191906000526020600020905b81548152906001019060200180831161014a57829003601f168201915b5050505050905090565b806000908161018091906107ae565b5050565b6001818154811061019457600080fd5b906000526020600020016000915054906101000a900473ffffffffffffffffffffffffffffffffffffffff1681565b60006040516101d190610256565b604051809103906000f0801580156101ed573d6000803e3d6000fd5b5090506001819080600181540180825580915050600190039060005260206000200160009091909190916101000a81548173ffffffffffffffffffffffffffffffffffffffff021916908373ffffffffffffffffffffffffffffffffffffffff16021790555050565b609c8061088183390190565b600081519050919050565b600082825260208201905092915050565b60005b8381101561029c578082015181840152602081019050610281565b838111156102ab576000848401525b50505050565b6000601f19601f8301169050919050565b60006102cd82610262565b6102d7818561026d565b93506102e781856020860161027e565b6102f0816102b1565b840191505092915050565b6000602082019050818103600083015261031581846102c2565b905092915050565b6000604051905090565b600080fd5b600080fd5b600080fd5b600080fd5b7f4e487b7100000000000000000000000000000000000000000000000000000000600052604160045260246000fd5b610373826102b1565b810181811067ffffffffffffffff821117156103925761039161033b565b5b80604052505050565b60006103a561031d565b90506103b1828261036a565b919050565b600067ffffffffffffffff8211156103d1576103d061033b565b5b6103da826102b1565b9050602081019050919050565b82818337600083830152505050565b6000610409610404846103b6565b61039b565b90508281526020810184848401111561042557610424610336565b5b6104308482856103e7565b509392505050565b600082601f83011261044d5761044c610331565b5b813561045d8482602086016103f6565b91505092915050565b60006020828403121561047c5761047b610327565b5b600082013567ffffffffffffffff81111561049a5761049961032c565b5b6104a684828501610438565b91505092915050565b6000819050919050565b6104c2816104af565b81146104cd57600080fd5b50565b6000813590506104df816104b9565b92915050565b6000602082840312156104fb576104fa610327565b5b6000610509848285016104d0565b91505092915050565b600073ffffffffffffffffffffffffffffffffffffffff82169050919050565b6000819050919050565b600061055761055261054d84610512565b610532565b610512565b9050919050565b60006105698261053c565b9050919050565b600061057b8261055e565b9050919050565b61058b81610570565b82525050565b60006020820190506105a66000830184610582565b92915050565b7f4e487b7100000000000000000000000000000000000000000000000000000000600052602260045260246000fd5b600060028204905060018216806105f357607f821691505b602082108103610606576106056105ac565b5b50919050565b60008190508160005260206000209050919050565b60006020601f8301049050919050565b600082821b905092915050565b60006008830261066e7fffffffffffffffffffffffffffffffffffffffffffffffffffffffffffffffff82610631565b6106788683610631565b95508019841693508086168417925050509392505050565b60006106ab6106a66106a1846104af565b610532565b6104af565b9050919050565b6000819050919050565b6106c583610690565b6106d96106d1826106b2565b84845461063e565b825550505050565b600090565b6106ee6106e1565b6106f98184846106bc565b505050565b5b8181101561071d576107126000826106e6565b6001810190506106ff565b5050565b601f821115610762576107338161060c565b61073c84610621565b8101602085101561074b578190505b61075f61075785610621565b8301826106fe565b50505b505050565b600082821c905092915050565b600061078560001984600802610767565b1980831691505092915050565b600061079e8383610774565b9150826002028217905092915050565b6107b782610262565b67ffffffffffffffff8111156107d0576107cf61033b565b5b6107da82546105db565b6107e5828285610721565b600060209050601f8311600181146108185760008415610806578287015190505b6108108582610792565b865550610878565b601f1984166108268661060c565b60005b8281101561084e57848901518255600182019150602085019450602081019050610829565b8683101561086b5784890151610867601f891682610774565b8355505b6001600288020188555050505b50505050505056fe6080604052348015600f57600080fd5b50336000806101000a81548173ffffffffffffffffffffffffffffffffffffffff021916908373ffffffffffffffffffffffffffffffffffffffff160217905550603f80605d6000396000f3fe6080604052600080fdfea26469706673582212201ba7588a848f30c61230fa4e21cd1898a4e2e071aae906eead46ca5d7ff16e0a64736f6c634300080f0033a2646970667358221220ed79d89c3a44bef6b819ec6d504a05bca912222bed58110fff27761760bc149864736f6c634300080f0033",
  "immutableReferences": {},
  "source": "pragma solidity ^0.8.0;\r\n//SPDX-License-Identifier: MIT\r\n\r\nimport \"./Ownable.sol\";\r\n\r\ncontract HelloWorld{\r\n    string message = \"Hello World\";\r\n\r\n//----------------------------------------------\r\n    Ownable[] public ownableArray;\r\n\r\n\r\n    function own() public{\r\n        Ownable ownable = new Ownable();\r\n        ownableArray.push(ownable);\r\n    }\r\n//------------------------------------------------\r\n\r\n\r\n    function setMessage(string memory newMessage) public payable{\r\n        message = newMessage;\r\n    }\r\n\r\n    function hello() public view returns (string memory){\r\n        return message;\r\n    }\r\n}",
  "sourcePath": "C:\\Users\\kaz\\OneDrive - #AskBlockchain\\contracts\\contracts\\hello.sol",
  "compiler": {
    "name": "solc",
    "version": "0.8.15+commit.e14f2714.Emscripten.clang"
  },
  "schemaVersion": "3.4.8",
  "updatedAt": "2022-12-07T19:48:09.852Z",
  "devdoc": {
    "kind": "dev",
    "methods": {},
    "version": 1
  },
  "userdoc": {
    "kind": "user",
    "methods": {},
    "version": 1
  }
}