{
  "contractName": "KazToken",
  "abi": [
    {
      "inputs": [
        {
          "internalType": "address",
          "name": "account",
          "type": "address"
        },
        {
          "internalType": "uint256",
          "name": "amount",
          "type": "uint256"
        }
      ],
      "stateMutability": "nonpayable",
      "type": "constructor"
    },
    {
      "anonymous": false,
      "inputs": [
        {
          "indexed": true,
          "internalType": "address",
          "name": "owner",
          "type": "address"
        },
        {
          "indexed": true,
          "internalType": "address",
          "name": "spender",
          "type": "address"
        },
        {
          "indexed": false,
          "internalType": "uint256",
          "name": "value",
          "type": "uint256"
        }
      ],
      "name": "Approval",
      "type": "event"
    },
    {
      "anonymous": false,
      "inputs": [
        {
          "indexed": false,
          "internalType": "address",
          "name": "account",
          "type": "address"
        }
      ],
      "name": "Paused",
      "type": "event"
    },
    {
      "anonymous": false,
      "inputs": [
        {
          "indexed": true,
          "internalType": "bytes32",
          "name": "role",
          "type": "bytes32"
        },
        {
          "indexed": true,
          "internalType": "bytes32",
          "name": "previousAdminRole",
          "type": "bytes32"
        },
        {
          "indexed": true,
          "internalType": "bytes32",
          "name": "newAdminRole",
          "type": "bytes32"
        }
      ],
      "name": "RoleAdminChanged",
      "type": "event"
    },
    {
      "anonymous": false,
      "inputs": [
        {
          "indexed": true,
          "internalType": "bytes32",
          "name": "role",
          "type": "bytes32"
        },
        {
          "indexed": true,
          "internalType": "address",
          "name": "account",
          "type": "address"
        },
        {
          "indexed": true,
          "internalType": "address",
          "name": "sender",
          "type": "address"
        }
      ],
      "name": "RoleGranted",
      "type": "event"
    },
    {
      "anonymous": false,
      "inputs": [
        {
          "indexed": true,
          "internalType": "bytes32",
          "name": "role",
          "type": "bytes32"
        },
        {
          "indexed": true,
          "internalType": "address",
          "name": "account",
          "type": "address"
        },
        {
          "indexed": true,
          "internalType": "address",
          "name": "sender",
          "type": "address"
        }
      ],
      "name": "RoleRevoked",
      "type": "event"
    },
    {
      "anonymous": false,
      "inputs": [
        {
          "indexed": true,
          "internalType": "address",
          "name": "from",
          "type": "address"
        },
        {
          "indexed": true,
          "internalType": "address",
          "name": "to",
          "type": "address"
        },
        {
          "indexed": false,
          "internalType": "uint256",
          "name": "value",
          "type": "uint256"
        }
      ],
      "name": "Transfer",
      "type": "event"
    },
    {
      "anonymous": false,
      "inputs": [
        {
          "indexed": false,
          "internalType": "address",
          "name": "account",
          "type": "address"
        }
      ],
      "name": "Unpaused",
      "type": "event"
    },
    {
      "inputs": [],
      "name": "DEFAULT_ADMIN_ROLE",
      "outputs": [
        {
          "internalType": "bytes32",
          "name": "",
          "type": "bytes32"
        }
      ],
      "stateMutability": "view",
      "type": "function",
      "constant": true
    },
    {
      "inputs": [],
      "name": "MINTER_ROLE",
      "outputs": [
        {
          "internalType": "bytes32",
          "name": "",
          "type": "bytes32"
        }
      ],
      "stateMutability": "view",
      "type": "function",
      "constant": true
    },
    {
      "inputs": [],
      "name": "PAUSER_ROLE",
      "outputs": [
        {
          "internalType": "bytes32",
          "name": "",
          "type": "bytes32"
        }
      ],
      "stateMutability": "view",
      "type": "function",
      "constant": true
    },
    {
      "inputs": [
        {
          "internalType": "address",
          "name": "owner",
          "type": "address"
        },
        {
          "internalType": "address",
          "name": "spender",
          "type": "address"
        }
      ],
      "name": "allowance",
      "outputs": [
        {
          "internalType": "uint256",
          "name": "",
          "type": "uint256"
        }
      ],
      "stateMutability": "view",
      "type": "function",
      "constant": true
    },
    {
      "inputs": [
        {
          "internalType": "address",
          "name": "spender",
          "type": "address"
        },
        {
          "internalType": "uint256",
          "name": "amount",
          "type": "uint256"
        }
      ],
      "name": "approve",
      "outputs": [
        {
          "internalType": "bool",
          "name": "",
          "type": "bool"
        }
      ],
      "stateMutability": "nonpayable",
      "type": "function"
    },
    {
      "inputs": [
        {
          "internalType": "address",
          "name": "account",
          "type": "address"
        }
      ],
      "name": "balanceOf",
      "outputs": [
        {
          "internalType": "uint256",
          "name": "",
          "type": "uint256"
        }
      ],
      "stateMutability": "view",
      "type": "function",
      "constant": true
    },
    {
      "inputs": [
        {
          "internalType": "uint256",
          "name": "amount",
          "type": "uint256"
        }
      ],
      "name": "burn",
      "outputs": [],
      "stateMutability": "nonpayable",
      "type": "function"
    },
    {
      "inputs": [
        {
          "internalType": "address",
          "name": "account",
          "type": "address"
        },
        {
          "internalType": "uint256",
          "name": "amount",
          "type": "uint256"
        }
      ],
      "name": "burnFrom",
      "outputs": [],
      "stateMutability": "nonpayable",
      "type": "function"
    },
    {
      "inputs": [],
      "name": "decimals",
      "outputs": [
        {
          "internalType": "uint8",
          "name": "",
          "type": "uint8"
        }
      ],
      "stateMutability": "view",
      "type": "function",
      "constant": true
    },
    {
      "inputs": [
        {
          "internalType": "address",
          "name": "spender",
          "type": "address"
        },
        {
          "internalType": "uint256",
          "name": "subtractedValue",
          "type": "uint256"
        }
      ],
      "name": "decreaseAllowance",
      "outputs": [
        {
          "internalType": "bool",
          "name": "",
          "type": "bool"
        }
      ],
      "stateMutability": "nonpayable",
      "type": "function"
    },
    {
      "inputs": [
        {
          "internalType": "bytes32",
          "name": "role",
          "type": "bytes32"
        }
      ],
      "name": "getRoleAdmin",
      "outputs": [
        {
          "internalType": "bytes32",
          "name": "",
          "type": "bytes32"
        }
      ],
      "stateMutability": "view",
      "type": "function",
      "constant": true
    },
    {
      "inputs": [
        {
          "internalType": "bytes32",
          "name": "role",
          "type": "bytes32"
        },
        {
          "internalType": "uint256",
          "name": "index",
          "type": "uint256"
        }
      ],
      "name": "getRoleMember",
      "outputs": [
        {
          "internalType": "address",
          "name": "",
          "type": "address"
        }
      ],
      "stateMutability": "view",
      "type": "function",
      "constant": true
    },
    {
      "inputs": [
        {
          "internalType": "bytes32",
          "name": "role",
          "type": "bytes32"
        }
      ],
      "name": "getRoleMemberCount",
      "outputs": [
        {
          "internalType": "uint256",
          "name": "",
          "type": "uint256"
        }
      ],
      "stateMutability": "view",
      "type": "function",
      "constant": true
    },
    {
      "inputs": [
        {
          "internalType": "bytes32",
          "name": "role",
          "type": "bytes32"
        },
        {
          "internalType": "address",
          "name": "account",
          "type": "address"
        }
      ],
      "name": "grantRole",
      "outputs": [],
      "stateMutability": "nonpayable",
      "type": "function"
    },
    {
      "inputs": [
        {
          "internalType": "bytes32",
          "name": "role",
          "type": "bytes32"
        },
        {
          "internalType": "address",
          "name": "account",
          "type": "address"
        }
      ],
      "name": "hasRole",
      "outputs": [
        {
          "internalType": "bool",
          "name": "",
          "type": "bool"
        }
      ],
      "stateMutability": "view",
      "type": "function",
      "constant": true
    },
    {
      "inputs": [
        {
          "internalType": "address",
          "name": "spender",
          "type": "address"
        },
        {
          "internalType": "uint256",
          "name": "addedValue",
          "type": "uint256"
        }
      ],
      "name": "increaseAllowance",
      "outputs": [
        {
          "internalType": "bool",
          "name": "",
          "type": "bool"
        }
      ],
      "stateMutability": "nonpayable",
      "type": "function"
    },
    {
      "inputs": [
        {
          "internalType": "address",
          "name": "to",
          "type": "address"
        },
        {
          "internalType": "uint256",
          "name": "amount",
          "type": "uint256"
        }
      ],
      "name": "mint",
      "outputs": [],
      "stateMutability": "nonpayable",
      "type": "function"
    },
    {
      "inputs": [],
      "name": "name",
      "outputs": [
        {
          "internalType": "string",
          "name": "",
          "type": "string"
        }
      ],
      "stateMutability": "view",
      "type": "function",
      "constant": true
    },
    {
      "inputs": [],
      "name": "pause",
      "outputs": [],
      "stateMutability": "nonpayable",
      "type": "function"
    },
    {
      "inputs": [],
      "name": "paused",
      "outputs": [
        {
          "internalType": "bool",
          "name": "",
          "type": "bool"
        }
      ],
      "stateMutability": "view",
      "type": "function",
      "constant": true
    },
    {
      "inputs": [
        {
          "internalType": "bytes32",
          "name": "role",
          "type": "bytes32"
        },
        {
          "internalType": "address",
          "name": "account",
          "type": "address"
        }
      ],
      "name": "renounceRole",
      "outputs": [],
      "stateMutability": "nonpayable",
      "type": "function"
    },
    {
      "inputs": [
        {
          "internalType": "bytes32",
          "name": "role",
          "type": "bytes32"
        },
        {
          "internalType": "address",
          "name": "account",
          "type": "address"
        }
      ],
      "name": "revokeRole",
      "outputs": [],
      "stateMutability": "nonpayable",
      "type": "function"
    },
    {
      "inputs": [
        {
          "internalType": "bytes4",
          "name": "interfaceId",
          "type": "bytes4"
        }
      ],
      "name": "supportsInterface",
      "outputs": [
        {
          "internalType": "bool",
          "name": "",
          "type": "bool"
        }
      ],
      "stateMutability": "view",
      "type": "function",
      "constant": true
    },
    {
      "inputs": [],
      "name": "symbol",
      "outputs": [
        {
          "internalType": "string",
          "name": "",
          "type": "string"
        }
      ],
      "stateMutability": "view",
      "type": "function",
      "constant": true
    },
    {
      "inputs": [],
      "name": "totalSupply",
      "outputs": [
        {
          "internalType": "uint256",
          "name": "",
          "type": "uint256"
        }
      ],
      "stateMutability": "view",
      "type": "function",
      "constant": true
    },
    {
      "inputs": [
        {
          "internalType": "address",
          "name": "to",
          "type": "address"
        },
        {
          "internalType": "uint256",
          "name": "amount",
          "type": "uint256"
        }
      ],
      "name": "transfer",
      "outputs": [
        {
          "internalType": "bool",
          "name": "",
          "type": "bool"
        }
      ],
      "stateMutability": "nonpayable",
      "type": "function"
    },
    {
      "inputs": [
        {
          "internalType": "address",
          "name": "from",
          "type": "address"
        },
        {
          "internalType": "address",
          "name": "to",
          "type": "address"
        },
        {
          "internalType": "uint256",
          "name": "amount",
          "type": "uint256"
        }
      ],
      "name": "transferFrom",
      "outputs": [
        {
          "internalType": "bool",
          "name": "",
          "type": "bool"
        }
      ],
      "stateMutability": "nonpayable",
      "type": "function"
    },
    {
      "inputs": [],
      "name": "unpause",
      "outputs": [],
      "stateMutability": "nonpayable",
      "type": "function"
    },
    {
      "inputs": [
        {
          "internalType": "uint256",
          "name": "cap_",
          "type": "uint256"
        }
      ],
      "name": "modifyCap",
      "outputs": [],
      "stateMutability": "nonpayable",
      "type": "function"
    },
    {
      "inputs": [],
      "name": "cap",
      "outputs": [
        {
          "internalType": "uint256",
          "name": "",
          "type": "uint256"
        }
      ],
      "stateMutability": "view",
      "type": "function",
      "constant": true
    }
  ],
  "bytecode": "0x6080604052610fa06008553480156200001757600080fd5b506040516200412c3803806200412c83398181016040528101906200003d91906200083a565b6040518060400160405280600981526020017f4b617a20546f6b656e00000000000000000000000000000000000000000000008152506040518060400160405280600381526020017f4b415a000000000000000000000000000000000000000000000000000000000081525081818160059081620000bc919062000af1565b508060069081620000ce919062000af1565b5050506000600760006101000a81548160ff021916908315150217905550620001106000801b62000104620002cf60201b60201c565b620002d760201b60201c565b620001517f9f2df0fed2c77648de5860a4cc508cd0818c85b8b8a1ab4ceeef8d981c8956a662000145620002cf60201b60201c565b620002d760201b60201c565b620001927f65d7a28e3265b37a6474929f336521b332c1681b933f6cb9f3376673440d862a62000186620002cf60201b60201c565b620002d760201b60201c565b5050620001b86000801b620001ac620002cf60201b60201c565b620002d760201b60201c565b620001f97f9f2df0fed2c77648de5860a4cc508cd0818c85b8b8a1ab4ceeef8d981c8956a6620001ed620002cf60201b60201c565b620002d760201b60201c565b6200023a7f65d7a28e3265b37a6474929f336521b332c1681b933f6cb9f3376673440d862a6200022e620002cf60201b60201c565b620002d760201b60201c565b6200024a620002ed60201b60201c565b8162000260620002f760201b620007341760201c565b6200026c919062000c07565b1115620002b0576040517f08c379a0000000000000000000000000000000000000000000000000000000008152600401620002a79062000cc5565b60405180910390fd5b620002c782826200030160201b62000e161760201c565b505062000e1f565b600033905090565b620002e982826200046f60201b60201c565b5050565b6000600854905090565b6000600454905090565b600073ffffffffffffffffffffffffffffffffffffffff168273ffffffffffffffffffffffffffffffffffffffff160362000373576040517f08c379a00000000000000000000000000000000000000000000000000000000081526004016200036a9062000d37565b60405180910390fd5b6200038760008383620004b760201b60201c565b80600460008282546200039b919062000c07565b9250508190555080600260008473ffffffffffffffffffffffffffffffffffffffff1673ffffffffffffffffffffffffffffffffffffffff168152602001908152602001600020600082825401925050819055508173ffffffffffffffffffffffffffffffffffffffff16600073ffffffffffffffffffffffffffffffffffffffff167fddf252ad1be2c89b69c2b068fc378daa952ba7f163c4a11628f55a4df523b3ef836040516200044f919062000d6a565b60405180910390a36200046b60008383620004d460201b60201c565b5050565b620004868282620004d960201b62000f6d1760201c565b620004b28160016000858152602001908152602001600020620005ca60201b6200104d1790919060201c565b505050565b620004cf8383836200060260201b6200107d1760201c565b505050565b505050565b620004eb82826200067260201b60201c565b620005c657600160008084815260200190815260200160002060000160008373ffffffffffffffffffffffffffffffffffffffff1673ffffffffffffffffffffffffffffffffffffffff16815260200190815260200160002060006101000a81548160ff0219169083151502179055506200056b620002cf60201b60201c565b73ffffffffffffffffffffffffffffffffffffffff168173ffffffffffffffffffffffffffffffffffffffff16837f2f8788117e7eff1d82e926ec794901d17c78024a50270940304540a733656f0d60405160405180910390a45b5050565b6000620005fa836000018373ffffffffffffffffffffffffffffffffffffffff1660001b620006dc60201b60201c565b905092915050565b6200061a8383836200075660201b620010d51760201c565b6200062a6200075b60201b60201c565b156200066d576040517f08c379a0000000000000000000000000000000000000000000000000000000008152600401620006649062000dfd565b60405180910390fd5b505050565b600080600084815260200190815260200160002060000160008373ffffffffffffffffffffffffffffffffffffffff1673ffffffffffffffffffffffffffffffffffffffff16815260200190815260200160002060009054906101000a900460ff16905092915050565b6000620006f083836200077260201b60201c565b6200074b57826000018290806001815401808255809150506001900390600052602060002001600090919091909150558260000180549050836001016000848152602001908152602001600020819055506001905062000750565b600090505b92915050565b505050565b6000600760009054906101000a900460ff16905090565b600080836001016000848152602001908152602001600020541415905092915050565b600080fd5b600073ffffffffffffffffffffffffffffffffffffffff82169050919050565b6000620007c7826200079a565b9050919050565b620007d981620007ba565b8114620007e557600080fd5b50565b600081519050620007f981620007ce565b92915050565b6000819050919050565b6200081481620007ff565b81146200082057600080fd5b50565b600081519050620008348162000809565b92915050565b6000806040838503121562000854576200085362000795565b5b60006200086485828601620007e8565b9250506020620008778582860162000823565b9150509250929050565b600081519050919050565b7f4e487b7100000000000000000000000000000000000000000000000000000000600052604160045260246000fd5b7f4e487b7100000000000000000000000000000000000000000000000000000000600052602260045260246000fd5b600060028204905060018216806200090357607f821691505b602082108103620009195762000918620008bb565b5b50919050565b60008190508160005260206000209050919050565b60006020601f8301049050919050565b600082821b905092915050565b600060088302620009837fffffffffffffffffffffffffffffffffffffffffffffffffffffffffffffffff8262000944565b6200098f868362000944565b95508019841693508086168417925050509392505050565b6000819050919050565b6000620009d2620009cc620009c684620007ff565b620009a7565b620007ff565b9050919050565b6000819050919050565b620009ee83620009b1565b62000a06620009fd82620009d9565b84845462000951565b825550505050565b600090565b62000a1d62000a0e565b62000a2a818484620009e3565b505050565b5b8181101562000a525762000a4660008262000a13565b60018101905062000a30565b5050565b601f82111562000aa15762000a6b816200091f565b62000a768462000934565b8101602085101562000a86578190505b62000a9e62000a958562000934565b83018262000a2f565b50505b505050565b600082821c905092915050565b600062000ac66000198460080262000aa6565b1980831691505092915050565b600062000ae1838362000ab3565b9150826002028217905092915050565b62000afc8262000881565b67ffffffffffffffff81111562000b185762000b176200088c565b5b62000b248254620008ea565b62000b3182828562000a56565b600060209050601f83116001811462000b69576000841562000b54578287015190505b62000b60858262000ad3565b86555062000bd0565b601f19841662000b79866200091f565b60005b8281101562000ba35784890151825560018201915060208501945060208101905062000b7c565b8683101562000bc3578489015162000bbf601f89168262000ab3565b8355505b6001600288020188555050505b505050505050565b7f4e487b7100000000000000000000000000000000000000000000000000000000600052601160045260246000fd5b600062000c1482620007ff565b915062000c2183620007ff565b9250827fffffffffffffffffffffffffffffffffffffffffffffffffffffffffffffffff0382111562000c595762000c5862000bd8565b5b828201905092915050565b600082825260208201905092915050565b7f45524332304361707065643a2063617020657863656564656400000000000000600082015250565b600062000cad60198362000c64565b915062000cba8262000c75565b602082019050919050565b6000602082019050818103600083015262000ce08162000c9e565b9050919050565b7f45524332303a206d696e7420746f20746865207a65726f206164647265737300600082015250565b600062000d1f601f8362000c64565b915062000d2c8262000ce7565b602082019050919050565b6000602082019050818103600083015262000d528162000d10565b9050919050565b62000d6481620007ff565b82525050565b600060208201905062000d81600083018462000d59565b92915050565b7f45524332305061757361626c653a20746f6b656e207472616e7366657220776860008201527f696c652070617573656400000000000000000000000000000000000000000000602082015250565b600062000de5602a8362000c64565b915062000df28262000d87565b604082019050919050565b6000602082019050818103600083015262000e188162000dd6565b9050919050565b6132fd8062000e2f6000396000f3fe608060405234801561001057600080fd5b50600436106101da5760003560e01c806370a0823111610104578063a217fddf116100a2578063d539139311610071578063d53913931461057d578063d547741f1461059b578063dd62ed3e146105b7578063e63ab1e9146105e7576101da565b8063a217fddf146104cf578063a457c2d7146104ed578063a9059cbb1461051d578063ca15c8731461054d576101da565b80638456cb59116100de5780638456cb59146104475780639010d07c1461045157806391d148541461048157806395d89b41146104b1576101da565b806370a08231146103df57806379cc67901461040f5780637e4930ae1461042b576101da565b8063313ce5671161017c5780633f4ba83a1161014b5780633f4ba83a1461037f57806340c10f191461038957806342966c68146103a55780635c975abb146103c1576101da565b8063313ce567146102f7578063355274ea1461031557806336568abe14610333578063395093511461034f576101da565b806318160ddd116101b857806318160ddd1461025d57806323b872dd1461027b578063248a9ca3146102ab5780632f2ff15d146102db576101da565b806301ffc9a7146101df57806306fdde031461020f578063095ea7b31461022d575b600080fd5b6101f960048036038101906101f491906120bb565b610605565b6040516102069190612103565b60405180910390f35b61021761067f565b60405161022491906121b7565b60405180910390f35b6102476004803603810190610242919061226d565b610711565b6040516102549190612103565b60405180910390f35b610265610734565b60405161027291906122bc565b60405180910390f35b610295600480360381019061029091906122d7565b61073e565b6040516102a29190612103565b60405180910390f35b6102c560048036038101906102c09190612360565b61076d565b6040516102d2919061239c565b60405180910390f35b6102f560048036038101906102f091906123b7565b61078c565b005b6102ff6107ad565b60405161030c9190612413565b60405180910390f35b61031d6107b6565b60405161032a91906122bc565b60405180910390f35b61034d600480360381019061034891906123b7565b6107c0565b005b6103696004803603810190610364919061226d565b610843565b6040516103769190612103565b60405180910390f35b61038761087a565b005b6103a3600480360381019061039e919061226d565b6108f4565b005b6103bf60048036038101906103ba919061242e565b610972565b005b6103c9610986565b6040516103d69190612103565b60405180910390f35b6103f960048036038101906103f4919061245b565b61099d565b60405161040691906122bc565b60405180910390f35b6104296004803603810190610424919061226d565b6109e6565b005b6104456004803603810190610440919061242e565b610a06565b005b61044f610abc565b005b61046b60048036038101906104669190612488565b610b36565b60405161047891906124d7565b60405180910390f35b61049b600480360381019061049691906123b7565b610b65565b6040516104a89190612103565b60405180910390f35b6104b9610bcf565b6040516104c691906121b7565b60405180910390f35b6104d7610c61565b6040516104e4919061239c565b60405180910390f35b6105076004803603810190610502919061226d565b610c68565b6040516105149190612103565b60405180910390f35b6105376004803603810190610532919061226d565b610cdf565b6040516105449190612103565b60405180910390f35b61056760048036038101906105629190612360565b610d02565b60405161057491906122bc565b60405180910390f35b610585610d26565b604051610592919061239c565b60405180910390f35b6105b560048036038101906105b091906123b7565b610d4a565b005b6105d160048036038101906105cc91906124f2565b610d6b565b6040516105de91906122bc565b60405180910390f35b6105ef610df2565b6040516105fc919061239c565b60405180910390f35b60007f5a05180f000000000000000000000000000000000000000000000000000000007bffffffffffffffffffffffffffffffffffffffffffffffffffffffff1916827bffffffffffffffffffffffffffffffffffffffffffffffffffffffff191614806106785750610677826110da565b5b9050919050565b60606005805461068e90612561565b80601f01602080910402602001604051908101604052809291908181526020018280546106ba90612561565b80156107075780601f106106dc57610100808354040283529160200191610707565b820191906000526020600020905b8154815290600101906020018083116106ea57829003601f168201915b5050505050905090565b60008061071c611154565b905061072981858561115c565b600191505092915050565b6000600454905090565b600080610749611154565b9050610756858285611325565b6107618585856113b1565b60019150509392505050565b6000806000838152602001908152602001600020600101549050919050565b6107958261076d565b61079e8161162a565b6107a8838361163e565b505050565b60006012905090565b6000600854905090565b6107c8611154565b73ffffffffffffffffffffffffffffffffffffffff168173ffffffffffffffffffffffffffffffffffffffff1614610835576040517f08c379a000000000000000000000000000000000000000000000000000000000815260040161082c90612604565b60405180910390fd5b61083f8282611672565b5050565b60008061084e611154565b905061086f8185856108608589610d6b565b61086a9190612653565b61115c565b600191505092915050565b6108ab7f65d7a28e3265b37a6474929f336521b332c1681b933f6cb9f3376673440d862a6108a6611154565b610b65565b6108ea576040517f08c379a00000000000000000000000000000000000000000000000000000000081526004016108e19061271b565b60405180910390fd5b6108f26116a6565b565b6109257f9f2df0fed2c77648de5860a4cc508cd0818c85b8b8a1ab4ceeef8d981c8956a6610920611154565b610b65565b610964576040517f08c379a000000000000000000000000000000000000000000000000000000000815260040161095b906127ad565b60405180910390fd5b61096e8282610e16565b5050565b61098361097d611154565b82611709565b50565b6000600760009054906101000a900460ff16905090565b6000600260008373ffffffffffffffffffffffffffffffffffffffff1673ffffffffffffffffffffffffffffffffffffffff168152602001908152602001600020549050919050565b6109f8826109f2611154565b83611325565b610a028282611709565b5050565b610a307f9f2df0fed2c77648de5860a4cc508cd0818c85b8b8a1ab4ceeef8d981c8956a633610b65565b610a6f576040517f08c379a0000000000000000000000000000000000000000000000000000000008152600401610a6690612819565b60405180910390fd5b60008111610ab2576040517f08c379a0000000000000000000000000000000000000000000000000000000008152600401610aa990612885565b60405180910390fd5b8060088190555050565b610aed7f65d7a28e3265b37a6474929f336521b332c1681b933f6cb9f3376673440d862a610ae8611154565b610b65565b610b2c576040517f08c379a0000000000000000000000000000000000000000000000000000000008152600401610b2390612917565b60405180910390fd5b610b346118d8565b565b6000610b5d826001600086815260200190815260200160002061193b90919063ffffffff16565b905092915050565b600080600084815260200190815260200160002060000160008373ffffffffffffffffffffffffffffffffffffffff1673ffffffffffffffffffffffffffffffffffffffff16815260200190815260200160002060009054906101000a900460ff16905092915050565b606060068054610bde90612561565b80601f0160208091040260200160405190810160405280929190818152602001828054610c0a90612561565b8015610c575780601f10610c2c57610100808354040283529160200191610c57565b820191906000526020600020905b815481529060010190602001808311610c3a57829003601f168201915b5050505050905090565b6000801b81565b600080610c73611154565b90506000610c818286610d6b565b905083811015610cc6576040517f08c379a0000000000000000000000000000000000000000000000000000000008152600401610cbd906129a9565b60405180910390fd5b610cd3828686840361115c565b60019250505092915050565b600080610cea611154565b9050610cf78185856113b1565b600191505092915050565b6000610d1f60016000848152602001908152602001600020611955565b9050919050565b7f9f2df0fed2c77648de5860a4cc508cd0818c85b8b8a1ab4ceeef8d981c8956a681565b610d538261076d565b610d5c8161162a565b610d668383611672565b505050565b6000600360008473ffffffffffffffffffffffffffffffffffffffff1673ffffffffffffffffffffffffffffffffffffffff16815260200190815260200160002060008373ffffffffffffffffffffffffffffffffffffffff1673ffffffffffffffffffffffffffffffffffffffff16815260200190815260200160002054905092915050565b7f65d7a28e3265b37a6474929f336521b332c1681b933f6cb9f3376673440d862a81565b600073ffffffffffffffffffffffffffffffffffffffff168273ffffffffffffffffffffffffffffffffffffffff1603610e85576040517f08c379a0000000000000000000000000000000000000000000000000000000008152600401610e7c90612a15565b60405180910390fd5b610e916000838361196a565b8060046000828254610ea39190612653565b9250508190555080600260008473ffffffffffffffffffffffffffffffffffffffff1673ffffffffffffffffffffffffffffffffffffffff168152602001908152602001600020600082825401925050819055508173ffffffffffffffffffffffffffffffffffffffff16600073ffffffffffffffffffffffffffffffffffffffff167fddf252ad1be2c89b69c2b068fc378daa952ba7f163c4a11628f55a4df523b3ef83604051610f5591906122bc565b60405180910390a3610f696000838361197a565b5050565b610f778282610b65565b61104957600160008084815260200190815260200160002060000160008373ffffffffffffffffffffffffffffffffffffffff1673ffffffffffffffffffffffffffffffffffffffff16815260200190815260200160002060006101000a81548160ff021916908315150217905550610fee611154565b73ffffffffffffffffffffffffffffffffffffffff168173ffffffffffffffffffffffffffffffffffffffff16837f2f8788117e7eff1d82e926ec794901d17c78024a50270940304540a733656f0d60405160405180910390a45b5050565b6000611075836000018373ffffffffffffffffffffffffffffffffffffffff1660001b61197f565b905092915050565b6110888383836110d5565b611090610986565b156110d0576040517f08c379a00000000000000000000000000000000000000000000000000000000081526004016110c790612aa7565b60405180910390fd5b505050565b505050565b60007f7965db0b000000000000000000000000000000000000000000000000000000007bffffffffffffffffffffffffffffffffffffffffffffffffffffffff1916827bffffffffffffffffffffffffffffffffffffffffffffffffffffffff1916148061114d575061114c826119ef565b5b9050919050565b600033905090565b600073ffffffffffffffffffffffffffffffffffffffff168373ffffffffffffffffffffffffffffffffffffffff16036111cb576040517f08c379a00000000000000000000000000000000000000000000000000000000081526004016111c290612b39565b60405180910390fd5b600073ffffffffffffffffffffffffffffffffffffffff168273ffffffffffffffffffffffffffffffffffffffff160361123a576040517f08c379a000000000000000000000000000000000000000000000000000000000815260040161123190612bcb565b60405180910390fd5b80600360008573ffffffffffffffffffffffffffffffffffffffff1673ffffffffffffffffffffffffffffffffffffffff16815260200190815260200160002060008473ffffffffffffffffffffffffffffffffffffffff1673ffffffffffffffffffffffffffffffffffffffff168152602001908152602001600020819055508173ffffffffffffffffffffffffffffffffffffffff168373ffffffffffffffffffffffffffffffffffffffff167f8c5be1e5ebec7d5bd14f71427d1e84f3dd0314c0f7b2291e5b200ac8c7c3b9258360405161131891906122bc565b60405180910390a3505050565b60006113318484610d6b565b90507fffffffffffffffffffffffffffffffffffffffffffffffffffffffffffffffff81146113ab578181101561139d576040517f08c379a000000000000000000000000000000000000000000000000000000000815260040161139490612c37565b60405180910390fd5b6113aa848484840361115c565b5b50505050565b600073ffffffffffffffffffffffffffffffffffffffff168373ffffffffffffffffffffffffffffffffffffffff1603611420576040517f08c379a000000000000000000000000000000000000000000000000000000000815260040161141790612cc9565b60405180910390fd5b600073ffffffffffffffffffffffffffffffffffffffff168273ffffffffffffffffffffffffffffffffffffffff160361148f576040517f08c379a000000000000000000000000000000000000000000000000000000000815260040161148690612d5b565b60405180910390fd5b61149a83838361196a565b6000600260008573ffffffffffffffffffffffffffffffffffffffff1673ffffffffffffffffffffffffffffffffffffffff16815260200190815260200160002054905081811015611521576040517f08c379a000000000000000000000000000000000000000000000000000000000815260040161151890612ded565b60405180910390fd5b818103600260008673ffffffffffffffffffffffffffffffffffffffff1673ffffffffffffffffffffffffffffffffffffffff1681526020019081526020016000208190555081600260008573ffffffffffffffffffffffffffffffffffffffff1673ffffffffffffffffffffffffffffffffffffffff168152602001908152602001600020600082825401925050819055508273ffffffffffffffffffffffffffffffffffffffff168473ffffffffffffffffffffffffffffffffffffffff167fddf252ad1be2c89b69c2b068fc378daa952ba7f163c4a11628f55a4df523b3ef8460405161161191906122bc565b60405180910390a361162484848461197a565b50505050565b61163b81611636611154565b611a59565b50565b6116488282610f6d565b61166d816001600085815260200190815260200160002061104d90919063ffffffff16565b505050565b61167c8282611ade565b6116a18160016000858152602001908152602001600020611bbf90919063ffffffff16565b505050565b6116ae611bef565b6000600760006101000a81548160ff0219169083151502179055507f5db9ee0a495bf2e6ff9c91a7834c1ba4fdd244a5e8aa4e537bd38aeae4b073aa6116f2611154565b6040516116ff91906124d7565b60405180910390a1565b600073ffffffffffffffffffffffffffffffffffffffff168273ffffffffffffffffffffffffffffffffffffffff1603611778576040517f08c379a000000000000000000000000000000000000000000000000000000000815260040161176f90612e7f565b60405180910390fd5b6117848260008361196a565b6000600260008473ffffffffffffffffffffffffffffffffffffffff1673ffffffffffffffffffffffffffffffffffffffff1681526020019081526020016000205490508181101561180b576040517f08c379a000000000000000000000000000000000000000000000000000000000815260040161180290612f11565b60405180910390fd5b818103600260008573ffffffffffffffffffffffffffffffffffffffff1673ffffffffffffffffffffffffffffffffffffffff1681526020019081526020016000208190555081600460008282540392505081905550600073ffffffffffffffffffffffffffffffffffffffff168373ffffffffffffffffffffffffffffffffffffffff167fddf252ad1be2c89b69c2b068fc378daa952ba7f163c4a11628f55a4df523b3ef846040516118bf91906122bc565b60405180910390a36118d38360008461197a565b505050565b6118e0611c38565b6001600760006101000a81548160ff0219169083151502179055507f62e78cea01bee320cd4e420270b5ea74000d11b0c9f74754ebdbfc544b05a258611924611154565b60405161193191906124d7565b60405180910390a1565b600061194a8360000183611c82565b60001c905092915050565b600061196382600001611cad565b9050919050565b61197583838361107d565b505050565b505050565b600061198b8383611cbe565b6119e45782600001829080600181540180825580915050600190039060005260206000200160009091909190915055826000018054905083600101600084815260200190815260200160002081905550600190506119e9565b600090505b92915050565b60007f01ffc9a7000000000000000000000000000000000000000000000000000000007bffffffffffffffffffffffffffffffffffffffffffffffffffffffff1916827bffffffffffffffffffffffffffffffffffffffffffffffffffffffff1916149050919050565b611a638282610b65565b611ada57611a7081611ce1565b611a7e8360001c6020611d0e565b604051602001611a8f929190613005565b6040516020818303038152906040526040517f08c379a0000000000000000000000000000000000000000000000000000000008152600401611ad191906121b7565b60405180910390fd5b5050565b611ae88282610b65565b15611bbb57600080600084815260200190815260200160002060000160008373ffffffffffffffffffffffffffffffffffffffff1673ffffffffffffffffffffffffffffffffffffffff16815260200190815260200160002060006101000a81548160ff021916908315150217905550611b60611154565b73ffffffffffffffffffffffffffffffffffffffff168173ffffffffffffffffffffffffffffffffffffffff16837ff6391f5c32d9c69d2a47ea670b442974b53935d1edc7fd64eb21e047a839171b60405160405180910390a45b5050565b6000611be7836000018373ffffffffffffffffffffffffffffffffffffffff1660001b611f4a565b905092915050565b611bf7610986565b611c36576040517f08c379a0000000000000000000000000000000000000000000000000000000008152600401611c2d9061308b565b60405180910390fd5b565b611c40610986565b15611c80576040517f08c379a0000000000000000000000000000000000000000000000000000000008152600401611c77906130f7565b60405180910390fd5b565b6000826000018281548110611c9a57611c99613117565b5b9060005260206000200154905092915050565b600081600001805490509050919050565b600080836001016000848152602001908152602001600020541415905092915050565b6060611d078273ffffffffffffffffffffffffffffffffffffffff16601460ff16611d0e565b9050919050565b606060006002836002611d219190613146565b611d2b9190612653565b67ffffffffffffffff811115611d4457611d436131a0565b5b6040519080825280601f01601f191660200182016040528015611d765781602001600182028036833780820191505090505b5090507f300000000000000000000000000000000000000000000000000000000000000081600081518110611dae57611dad613117565b5b60200101907effffffffffffffffffffffffffffffffffffffffffffffffffffffffffffff1916908160001a9053507f780000000000000000000000000000000000000000000000000000000000000081600181518110611e1257611e11613117565b5b60200101907effffffffffffffffffffffffffffffffffffffffffffffffffffffffffffff1916908160001a90535060006001846002611e529190613146565b611e5c9190612653565b90505b6001811115611efc577f3031323334353637383961626364656600000000000000000000000000000000600f861660108110611e9e57611e9d613117565b5b1a60f81b828281518110611eb557611eb4613117565b5b60200101907effffffffffffffffffffffffffffffffffffffffffffffffffffffffffffff1916908160001a905350600485901c945080611ef5906131cf565b9050611e5f565b5060008414611f40576040517f08c379a0000000000000000000000000000000000000000000000000000000008152600401611f3790613244565b60405180910390fd5b8091505092915050565b60008083600101600084815260200190815260200160002054905060008114612052576000600182611f7c9190613264565b9050600060018660000180549050611f949190613264565b9050818114612003576000866000018281548110611fb557611fb4613117565b5b9060005260206000200154905080876000018481548110611fd957611fd8613117565b5b90600052602060002001819055508387600101600083815260200190815260200160002081905550505b8560000180548061201757612016613298565b5b600190038181906000526020600020016000905590558560010160008681526020019081526020016000206000905560019350505050612058565b60009150505b92915050565b600080fd5b60007fffffffff0000000000000000000000000000000000000000000000000000000082169050919050565b61209881612063565b81146120a357600080fd5b50565b6000813590506120b58161208f565b92915050565b6000602082840312156120d1576120d061205e565b5b60006120df848285016120a6565b91505092915050565b60008115159050919050565b6120fd816120e8565b82525050565b600060208201905061211860008301846120f4565b92915050565b600081519050919050565b600082825260208201905092915050565b60005b8381101561215857808201518184015260208101905061213d565b83811115612167576000848401525b50505050565b6000601f19601f8301169050919050565b60006121898261211e565b6121938185612129565b93506121a381856020860161213a565b6121ac8161216d565b840191505092915050565b600060208201905081810360008301526121d1818461217e565b905092915050565b600073ffffffffffffffffffffffffffffffffffffffff82169050919050565b6000612204826121d9565b9050919050565b612214816121f9565b811461221f57600080fd5b50565b6000813590506122318161220b565b92915050565b6000819050919050565b61224a81612237565b811461225557600080fd5b50565b60008135905061226781612241565b92915050565b600080604083850312156122845761228361205e565b5b600061229285828601612222565b92505060206122a385828601612258565b9150509250929050565b6122b681612237565b82525050565b60006020820190506122d160008301846122ad565b92915050565b6000806000606084860312156122f0576122ef61205e565b5b60006122fe86828701612222565b935050602061230f86828701612222565b925050604061232086828701612258565b9150509250925092565b6000819050919050565b61233d8161232a565b811461234857600080fd5b50565b60008135905061235a81612334565b92915050565b6000602082840312156123765761237561205e565b5b60006123848482850161234b565b91505092915050565b6123968161232a565b82525050565b60006020820190506123b1600083018461238d565b92915050565b600080604083850312156123ce576123cd61205e565b5b60006123dc8582860161234b565b92505060206123ed85828601612222565b9150509250929050565b600060ff82169050919050565b61240d816123f7565b82525050565b60006020820190506124286000830184612404565b92915050565b6000602082840312156124445761244361205e565b5b600061245284828501612258565b91505092915050565b6000602082840312156124715761247061205e565b5b600061247f84828501612222565b91505092915050565b6000806040838503121561249f5761249e61205e565b5b60006124ad8582860161234b565b92505060206124be85828601612258565b9150509250929050565b6124d1816121f9565b82525050565b60006020820190506124ec60008301846124c8565b92915050565b600080604083850312156125095761250861205e565b5b600061251785828601612222565b925050602061252885828601612222565b9150509250929050565b7f4e487b7100000000000000000000000000000000000000000000000000000000600052602260045260246000fd5b6000600282049050600182168061257957607f821691505b60208210810361258c5761258b612532565b5b50919050565b7f416363657373436f6e74726f6c3a2063616e206f6e6c792072656e6f756e636560008201527f20726f6c657320666f722073656c660000000000000000000000000000000000602082015250565b60006125ee602f83612129565b91506125f982612592565b604082019050919050565b6000602082019050818103600083015261261d816125e1565b9050919050565b7f4e487b7100000000000000000000000000000000000000000000000000000000600052601160045260246000fd5b600061265e82612237565b915061266983612237565b9250827fffffffffffffffffffffffffffffffffffffffffffffffffffffffffffffffff0382111561269e5761269d612624565b5b828201905092915050565b7f45524332305072657365744d696e7465725061757365723a206d75737420686160008201527f76652070617573657220726f6c6520746f20756e706175736500000000000000602082015250565b6000612705603983612129565b9150612710826126a9565b604082019050919050565b60006020820190508181036000830152612734816126f8565b9050919050565b7f45524332305072657365744d696e7465725061757365723a206d75737420686160008201527f7665206d696e74657220726f6c6520746f206d696e7400000000000000000000602082015250565b6000612797603683612129565b91506127a28261273b565b604082019050919050565b600060208201905081810360008301526127c68161278a565b9050919050565b7f4d7573742068617665204d494e54455220526f6c650000000000000000000000600082015250565b6000612803601583612129565b915061280e826127cd565b602082019050919050565b60006020820190508181036000830152612832816127f6565b9050919050565b7f45524332304361707065643a2063617020697320300000000000000000000000600082015250565b600061286f601583612129565b915061287a82612839565b602082019050919050565b6000602082019050818103600083015261289e81612862565b9050919050565b7f45524332305072657365744d696e7465725061757365723a206d75737420686160008201527f76652070617573657220726f6c6520746f207061757365000000000000000000602082015250565b6000612901603783612129565b915061290c826128a5565b604082019050919050565b60006020820190508181036000830152612930816128f4565b9050919050565b7f45524332303a2064656372656173656420616c6c6f77616e63652062656c6f7760008201527f207a65726f000000000000000000000000000000000000000000000000000000602082015250565b6000612993602583612129565b915061299e82612937565b604082019050919050565b600060208201905081810360008301526129c281612986565b9050919050565b7f45524332303a206d696e7420746f20746865207a65726f206164647265737300600082015250565b60006129ff601f83612129565b9150612a0a826129c9565b602082019050919050565b60006020820190508181036000830152612a2e816129f2565b9050919050565b7f45524332305061757361626c653a20746f6b656e207472616e7366657220776860008201527f696c652070617573656400000000000000000000000000000000000000000000602082015250565b6000612a91602a83612129565b9150612a9c82612a35565b604082019050919050565b60006020820190508181036000830152612ac081612a84565b9050919050565b7f45524332303a20617070726f76652066726f6d20746865207a65726f2061646460008201527f7265737300000000000000000000000000000000000000000000000000000000602082015250565b6000612b23602483612129565b9150612b2e82612ac7565b604082019050919050565b60006020820190508181036000830152612b5281612b16565b9050919050565b7f45524332303a20617070726f766520746f20746865207a65726f20616464726560008201527f7373000000000000000000000000000000000000000000000000000000000000602082015250565b6000612bb5602283612129565b9150612bc082612b59565b604082019050919050565b60006020820190508181036000830152612be481612ba8565b9050919050565b7f45524332303a20696e73756666696369656e7420616c6c6f77616e6365000000600082015250565b6000612c21601d83612129565b9150612c2c82612beb565b602082019050919050565b60006020820190508181036000830152612c5081612c14565b9050919050565b7f45524332303a207472616e736665722066726f6d20746865207a65726f20616460008201527f6472657373000000000000000000000000000000000000000000000000000000602082015250565b6000612cb3602583612129565b9150612cbe82612c57565b604082019050919050565b60006020820190508181036000830152612ce281612ca6565b9050919050565b7f45524332303a207472616e7366657220746f20746865207a65726f206164647260008201527f6573730000000000000000000000000000000000000000000000000000000000602082015250565b6000612d45602383612129565b9150612d5082612ce9565b604082019050919050565b60006020820190508181036000830152612d7481612d38565b9050919050565b7f45524332303a207472616e7366657220616d6f756e742065786365656473206260008201527f616c616e63650000000000000000000000000000000000000000000000000000602082015250565b6000612dd7602683612129565b9150612de282612d7b565b604082019050919050565b60006020820190508181036000830152612e0681612dca565b9050919050565b7f45524332303a206275726e2066726f6d20746865207a65726f2061646472657360008201527f7300000000000000000000000000000000000000000000000000000000000000602082015250565b6000612e69602183612129565b9150612e7482612e0d565b604082019050919050565b60006020820190508181036000830152612e9881612e5c565b9050919050565b7f45524332303a206275726e20616d6f756e7420657863656564732062616c616e60008201527f6365000000000000000000000000000000000000000000000000000000000000602082015250565b6000612efb602283612129565b9150612f0682612e9f565b604082019050919050565b60006020820190508181036000830152612f2a81612eee565b9050919050565b600081905092915050565b7f416363657373436f6e74726f6c3a206163636f756e7420000000000000000000600082015250565b6000612f72601783612f31565b9150612f7d82612f3c565b601782019050919050565b6000612f938261211e565b612f9d8185612f31565b9350612fad81856020860161213a565b80840191505092915050565b7f206973206d697373696e6720726f6c6520000000000000000000000000000000600082015250565b6000612fef601183612f31565b9150612ffa82612fb9565b601182019050919050565b600061301082612f65565b915061301c8285612f88565b915061302782612fe2565b91506130338284612f88565b91508190509392505050565b7f5061757361626c653a206e6f7420706175736564000000000000000000000000600082015250565b6000613075601483612129565b91506130808261303f565b602082019050919050565b600060208201905081810360008301526130a481613068565b9050919050565b7f5061757361626c653a2070617573656400000000000000000000000000000000600082015250565b60006130e1601083612129565b91506130ec826130ab565b602082019050919050565b60006020820190508181036000830152613110816130d4565b9050919050565b7f4e487b7100000000000000000000000000000000000000000000000000000000600052603260045260246000fd5b600061315182612237565b915061315c83612237565b9250817fffffffffffffffffffffffffffffffffffffffffffffffffffffffffffffffff048311821515161561319557613194612624565b5b828202905092915050565b7f4e487b7100000000000000000000000000000000000000000000000000000000600052604160045260246000fd5b60006131da82612237565b9150600082036131ed576131ec612624565b5b600182039050919050565b7f537472696e67733a20686578206c656e67746820696e73756666696369656e74600082015250565b600061322e602083612129565b9150613239826131f8565b602082019050919050565b6000602082019050818103600083015261325d81613221565b9050919050565b600061326f82612237565b915061327a83612237565b92508282101561328d5761328c612624565b5b828203905092915050565b7f4e487b7100000000000000000000000000000000000000000000000000000000600052603160045260246000fdfea26469706673582212207ca4407679c11e92c44b4f06158776df28296a112703c2e86ab8aff51a18a92164736f6c634300080f0033",
  "immutableReferences": {},
  "source": "// SPDX-License-Identifier: MIT\r\npragma solidity ^0.8.0;\r\n\r\n\r\n/* Your assignment is to create a new ERC20 token contract from the Openzeppelin template ERC20PresetMinterPauser and add cap functionality. \r\nMeaning that there is a maximum cap of token issuance. \r\n\r\nYou should also build a new function that allows you to modify the cap.\r\n\r\nYou should also study the AccessControl contract from Openzeppelin and implement a new role in the same ERC20 contract. \r\nThis role should be the only one to be able to change the contracts cap. */\r\n\r\nimport \"../node_modules/@openzeppelin/contracts/token/ERC20/presets/ERC20PresetMinterPauser.sol\";\r\n\r\n\r\n\r\ncontract KazToken is ERC20PresetMinterPauser {\r\n\r\n    uint256 internal _cap = 4000;\r\n\r\n    constructor(address account, uint256 amount) ERC20PresetMinterPauser(\"Kaz Token\", \"KAZ\") {\r\n        \r\n        _setupRole(DEFAULT_ADMIN_ROLE, _msgSender());\r\n\r\n        _setupRole(MINTER_ROLE, _msgSender());\r\n        _setupRole(PAUSER_ROLE, _msgSender());\r\n\r\n        \r\n        require(ERC20.totalSupply() + amount <= cap(), \"ERC20Capped: cap exceeded\");\r\n        super._mint(account, amount);\r\n    }\r\n\r\n\r\n\r\n    \r\n\r\n\r\n  \r\n\r\n    function modifyCap(uint256 cap_) public {\r\n        require (hasRole(MINTER_ROLE, msg.sender), \"Must have MINTER Role\");\r\n        require(cap_ > 0, \"ERC20Capped: cap is 0\");\r\n        _cap = cap_;\r\n    }\r\n\r\n      function cap() public view virtual returns (uint256) {\r\n        return _cap;\r\n    }\r\n\r\n\r\n  \r\n}\r\n\r\n \r\n    \r\n",
  "sourcePath": "C:\\Users\\kaz\\OneDrive - #AskBlockchain\\contracts\\contracts\\Token.sol",
  "compiler": {
    "name": "solc",
    "version": "0.8.15+commit.e14f2714.Emscripten.clang"
  },
  "schemaVersion": "3.4.8",
  "updatedAt": "2022-12-12T13:25:02.867Z",
  "networkType": "ethereum",
  "devdoc": {
    "kind": "dev",
    "methods": {
      "allowance(address,address)": {
        "details": "See {IERC20-allowance}."
      },
      "approve(address,uint256)": {
        "details": "See {IERC20-approve}. NOTE: If `amount` is the maximum `uint256`, the allowance is not updated on `transferFrom`. This is semantically equivalent to an infinite approval. Requirements: - `spender` cannot be the zero address."
      },
      "balanceOf(address)": {
        "details": "See {IERC20-balanceOf}."
      },
      "burn(uint256)": {
        "details": "Destroys `amount` tokens from the caller. See {ERC20-_burn}."
      },
      "burnFrom(address,uint256)": {
        "details": "Destroys `amount` tokens from `account`, deducting from the caller's allowance. See {ERC20-_burn} and {ERC20-allowance}. Requirements: - the caller must have allowance for ``accounts``'s tokens of at least `amount`."
      },
      "decimals()": {
        "details": "Returns the number of decimals used to get its user representation. For example, if `decimals` equals `2`, a balance of `505` tokens should be displayed to a user as `5.05` (`505 / 10 ** 2`). Tokens usually opt for a value of 18, imitating the relationship between Ether and Wei. This is the value {ERC20} uses, unless this function is overridden; NOTE: This information is only used for _display_ purposes: it in no way affects any of the arithmetic of the contract, including {IERC20-balanceOf} and {IERC20-transfer}."
      },
      "decreaseAllowance(address,uint256)": {
        "details": "Atomically decreases the allowance granted to `spender` by the caller. This is an alternative to {approve} that can be used as a mitigation for problems described in {IERC20-approve}. Emits an {Approval} event indicating the updated allowance. Requirements: - `spender` cannot be the zero address. - `spender` must have allowance for the caller of at least `subtractedValue`."
      },
      "getRoleAdmin(bytes32)": {
        "details": "Returns the admin role that controls `role`. See {grantRole} and {revokeRole}. To change a role's admin, use {_setRoleAdmin}."
      },
      "getRoleMember(bytes32,uint256)": {
        "details": "Returns one of the accounts that have `role`. `index` must be a value between 0 and {getRoleMemberCount}, non-inclusive. Role bearers are not sorted in any particular way, and their ordering may change at any point. WARNING: When using {getRoleMember} and {getRoleMemberCount}, make sure you perform all queries on the same block. See the following https://forum.openzeppelin.com/t/iterating-over-elements-on-enumerableset-in-openzeppelin-contracts/2296[forum post] for more information."
      },
      "getRoleMemberCount(bytes32)": {
        "details": "Returns the number of accounts that have `role`. Can be used together with {getRoleMember} to enumerate all bearers of a role."
      },
      "grantRole(bytes32,address)": {
        "details": "Grants `role` to `account`. If `account` had not been already granted `role`, emits a {RoleGranted} event. Requirements: - the caller must have ``role``'s admin role. May emit a {RoleGranted} event."
      },
      "hasRole(bytes32,address)": {
        "details": "Returns `true` if `account` has been granted `role`."
      },
      "increaseAllowance(address,uint256)": {
        "details": "Atomically increases the allowance granted to `spender` by the caller. This is an alternative to {approve} that can be used as a mitigation for problems described in {IERC20-approve}. Emits an {Approval} event indicating the updated allowance. Requirements: - `spender` cannot be the zero address."
      },
      "mint(address,uint256)": {
        "details": "Creates `amount` new tokens for `to`. See {ERC20-_mint}. Requirements: - the caller must have the `MINTER_ROLE`."
      },
      "name()": {
        "details": "Returns the name of the token."
      },
      "pause()": {
        "details": "Pauses all token transfers. See {ERC20Pausable} and {Pausable-_pause}. Requirements: - the caller must have the `PAUSER_ROLE`."
      },
      "paused()": {
        "details": "Returns true if the contract is paused, and false otherwise."
      },
      "renounceRole(bytes32,address)": {
        "details": "Revokes `role` from the calling account. Roles are often managed via {grantRole} and {revokeRole}: this function's purpose is to provide a mechanism for accounts to lose their privileges if they are compromised (such as when a trusted device is misplaced). If the calling account had been revoked `role`, emits a {RoleRevoked} event. Requirements: - the caller must be `account`. May emit a {RoleRevoked} event."
      },
      "revokeRole(bytes32,address)": {
        "details": "Revokes `role` from `account`. If `account` had been granted `role`, emits a {RoleRevoked} event. Requirements: - the caller must have ``role``'s admin role. May emit a {RoleRevoked} event."
      },
      "supportsInterface(bytes4)": {
        "details": "See {IERC165-supportsInterface}."
      },
      "symbol()": {
        "details": "Returns the symbol of the token, usually a shorter version of the name."
      },
      "totalSupply()": {
        "details": "See {IERC20-totalSupply}."
      },
      "transfer(address,uint256)": {
        "details": "See {IERC20-transfer}. Requirements: - `to` cannot be the zero address. - the caller must have a balance of at least `amount`."
      },
      "transferFrom(address,address,uint256)": {
        "details": "See {IERC20-transferFrom}. Emits an {Approval} event indicating the updated allowance. This is not required by the EIP. See the note at the beginning of {ERC20}. NOTE: Does not update the allowance if the current allowance is the maximum `uint256`. Requirements: - `from` and `to` cannot be the zero address. - `from` must have a balance of at least `amount`. - the caller must have allowance for ``from``'s tokens of at least `amount`."
      },
      "unpause()": {
        "details": "Unpauses all token transfers. See {ERC20Pausable} and {Pausable-_unpause}. Requirements: - the caller must have the `PAUSER_ROLE`."
      }
    },
    "version": 1
  },
  "userdoc": {
    "kind": "user",
    "methods": {},
    "version": 1
  }
}