{
  "contractName": "Wallet",
  "abi": [
    {
      "inputs": [
        {
          "internalType": "address[]",
          "name": "_owners",
          "type": "address[]"
        },
        {
          "internalType": "uint256",
          "name": "_limit",
          "type": "uint256"
        }
      ],
      "stateMutability": "nonpayable",
      "type": "constructor"
    },
    {
      "anonymous": false,
      "inputs": [
        {
          "indexed": false,
          "internalType": "uint256",
          "name": "_id",
          "type": "uint256"
        },
        {
          "indexed": false,
          "internalType": "uint256",
          "name": "_approvals",
          "type": "uint256"
        },
        {
          "indexed": false,
          "internalType": "address",
          "name": "_approver",
          "type": "address"
        }
      ],
      "name": "ApprovalReceived",
      "type": "event"
    },
    {
      "anonymous": false,
      "inputs": [
        {
          "indexed": false,
          "internalType": "uint256",
          "name": "_id",
          "type": "uint256"
        }
      ],
      "name": "TransferApproved",
      "type": "event"
    },
    {
      "anonymous": false,
      "inputs": [
        {
          "indexed": false,
          "internalType": "uint256",
          "name": "_id",
          "type": "uint256"
        },
        {
          "indexed": false,
          "internalType": "uint256",
          "name": "_amount",
          "type": "uint256"
        },
        {
          "indexed": false,
          "internalType": "address",
          "name": "_initiator",
          "type": "address"
        },
        {
          "indexed": false,
          "internalType": "address",
          "name": "_receiver",
          "type": "address"
        }
      ],
      "name": "TransferRequestCreated",
      "type": "event"
    },
    {
      "inputs": [
        {
          "internalType": "uint256",
          "name": "",
          "type": "uint256"
        }
      ],
      "name": "owners",
      "outputs": [
        {
          "internalType": "address",
          "name": "",
          "type": "address"
        }
      ],
      "stateMutability": "view",
      "type": "function"
    },
    {
      "inputs": [],
      "name": "deposit",
      "outputs": [],
      "stateMutability": "payable",
      "type": "function"
    },
    {
      "inputs": [
        {
          "internalType": "uint256",
          "name": "_amount",
          "type": "uint256"
        },
        {
          "internalType": "address payable",
          "name": "_receiver",
          "type": "address"
        }
      ],
      "name": "createTransfer",
      "outputs": [],
      "stateMutability": "nonpayable",
      "type": "function"
    },
    {
      "inputs": [
        {
          "internalType": "uint256",
          "name": "_id",
          "type": "uint256"
        }
      ],
      "name": "approve",
      "outputs": [],
      "stateMutability": "nonpayable",
      "type": "function"
    },
    {
      "inputs": [],
      "name": "getTransferRequests",
      "outputs": [
        {
          "components": [
            {
              "internalType": "uint256",
              "name": "amount",
              "type": "uint256"
            },
            {
              "internalType": "address payable",
              "name": "receiver",
              "type": "address"
            },
            {
              "internalType": "uint256",
              "name": "approvals",
              "type": "uint256"
            },
            {
              "internalType": "bool",
              "name": "hasBeenSent",
              "type": "bool"
            },
            {
              "internalType": "uint256",
              "name": "id",
              "type": "uint256"
            }
          ],
          "internalType": "struct Wallet.Transfer[]",
          "name": "list",
          "type": "tuple[]"
        }
      ],
      "stateMutability": "view",
      "type": "function"
    }
  ],
  "bytecode": "0x60806040523480156200001157600080fd5b506040516200102838038062001028833981810160405281019062000037919062000336565b81600090805190602001906200004f9291906200005f565b508060018190555050506200039c565b828054828255906000526020600020908101928215620000db579160200282015b82811115620000da5782518260006101000a81548173ffffffffffffffffffffffffffffffffffffffff021916908373ffffffffffffffffffffffffffffffffffffffff1602179055509160200191906001019062000080565b5b509050620000ea9190620000ee565b5090565b5b8082111562000109576000816000905550600101620000ef565b5090565b6000604051905090565b600080fd5b600080fd5b600080fd5b6000601f19601f8301169050919050565b7f4e487b7100000000000000000000000000000000000000000000000000000000600052604160045260246000fd5b620001718262000126565b810181811067ffffffffffffffff8211171562000193576200019262000137565b5b80604052505050565b6000620001a86200010d565b9050620001b6828262000166565b919050565b600067ffffffffffffffff821115620001d957620001d862000137565b5b602082029050602081019050919050565b600080fd5b600073ffffffffffffffffffffffffffffffffffffffff82169050919050565b60006200021c82620001ef565b9050919050565b6200022e816200020f565b81146200023a57600080fd5b50565b6000815190506200024e8162000223565b92915050565b60006200026b6200026584620001bb565b6200019c565b90508083825260208201905060208402830185811115620002915762000290620001ea565b5b835b81811015620002be5780620002a988826200023d565b84526020840193505060208101905062000293565b5050509392505050565b600082601f830112620002e057620002df62000121565b5b8151620002f284826020860162000254565b91505092915050565b6000819050919050565b6200031081620002fb565b81146200031c57600080fd5b50565b600081519050620003308162000305565b92915050565b6000806040838503121562000350576200034f62000117565b5b600083015167ffffffffffffffff8111156200037157620003706200011c565b5b6200037f85828601620002c8565b925050602062000392858286016200031f565b9150509250929050565b610c7c80620003ac6000396000f3fe60806040526004361061004a5760003560e01c8063025e7c271461004f5780634c12fa471461008c578063a04ef145146100b5578063b759f954146100e0578063d0e30db014610109575b600080fd5b34801561005b57600080fd5b5061007660048036038101906100719190610822565b610113565b6040516100839190610890565b60405180910390f35b34801561009857600080fd5b506100b360048036038101906100ae91906108e9565b610152565b005b3480156100c157600080fd5b506100ca61033d565b6040516100d79190610a79565b60405180910390f35b3480156100ec57600080fd5b5061010760048036038101906101029190610822565b61042b565b005b6101116107e5565b005b6000818154811061012357600080fd5b906000526020600020016000915054906101000a900473ffffffffffffffffffffffffffffffffffffffff1681565b6000805b6000805490508110156101ec573373ffffffffffffffffffffffffffffffffffffffff166000828154811061018e5761018d610a9b565b5b9060005260206000200160009054906101000a900473ffffffffffffffffffffffffffffffffffffffff1673ffffffffffffffffffffffffffffffffffffffff16036101d957600191505b80806101e490610af9565b915050610156565b5060011515811515146101fe57600080fd5b7f099c4ec4ecfc26f7c8b27aeee5443f92120fa2c4e91ba6020369ae71a4d442786002805490508433856040516102389493929190610baf565b60405180910390a160026040518060a001604052808581526020018473ffffffffffffffffffffffffffffffffffffffff1681526020016000815260200160001515815260200160028054905081525090806001815401808255809150506001900390600052602060002090600502016000909190919091506000820151816000015560208201518160010160006101000a81548173ffffffffffffffffffffffffffffffffffffffff021916908373ffffffffffffffffffffffffffffffffffffffff1602179055506040820151816002015560608201518160030160006101000a81548160ff021916908315150217905550608082015181600401555050505050565b60606002805480602002602001604051908101604052809291908181526020016000905b8282101561042257838290600052602060002090600502016040518060a0016040529081600082015481526020016001820160009054906101000a900473ffffffffffffffffffffffffffffffffffffffff1673ffffffffffffffffffffffffffffffffffffffff1673ffffffffffffffffffffffffffffffffffffffff168152602001600282015481526020016003820160009054906101000a900460ff1615151515815260200160048201548152505081526020019060010190610361565b50505050905090565b6000805b6000805490508110156104c5573373ffffffffffffffffffffffffffffffffffffffff166000828154811061046757610466610a9b565b5b9060005260206000200160009054906101000a900473ffffffffffffffffffffffffffffffffffffffff1673ffffffffffffffffffffffffffffffffffffffff16036104b257600191505b80806104bd90610af9565b91505061042f565b5060011515811515146104d757600080fd5b60001515600360003373ffffffffffffffffffffffffffffffffffffffff1673ffffffffffffffffffffffffffffffffffffffff168152602001908152602001600020600084815260200190815260200160002060009054906101000a900460ff1615151461054557600080fd5b600015156002838154811061055d5761055c610a9b565b5b906000526020600020906005020160030160009054906101000a900460ff1615151461058857600080fd5b6001600360003373ffffffffffffffffffffffffffffffffffffffff1673ffffffffffffffffffffffffffffffffffffffff168152602001908152602001600020600084815260200190815260200160002060006101000a81548160ff0219169083151502179055506002828154811061060557610604610a9b565b5b9060005260206000209060050201600201600081548092919061062790610af9565b91905055507ffec9d12d15ee8c8b836a58347cb0d4980db38411bcd0b83662cee48fb20b6dee826002848154811061066257610661610a9b565b5b9060005260206000209060050201600201543360405161068493929190610bf4565b60405180910390a1600154600283815481106106a3576106a2610a9b565b5b906000526020600020906005020160020154106107e1576001600283815481106106d0576106cf610a9b565b5b906000526020600020906005020160030160006101000a81548160ff0219169083151502179055506002828154811061070c5761070b610a9b565b5b906000526020600020906005020160010160009054906101000a900473ffffffffffffffffffffffffffffffffffffffff1673ffffffffffffffffffffffffffffffffffffffff166108fc6002848154811061076b5761076a610a9b565b5b9060005260206000209060050201600001549081150290604051600060405180830381858888f193505050501580156107a8573d6000803e3d6000fd5b507fd9bbf1d8bef570b7e92ef1ba025425fc15915ae01f3d3be144cdc8be05442eb5826040516107d89190610c2b565b60405180910390a15b5050565b565b600080fd5b6000819050919050565b6107ff816107ec565b811461080a57600080fd5b50565b60008135905061081c816107f6565b92915050565b600060208284031215610838576108376107e7565b5b60006108468482850161080d565b91505092915050565b600073ffffffffffffffffffffffffffffffffffffffff82169050919050565b600061087a8261084f565b9050919050565b61088a8161086f565b82525050565b60006020820190506108a56000830184610881565b92915050565b60006108b68261084f565b9050919050565b6108c6816108ab565b81146108d157600080fd5b50565b6000813590506108e3816108bd565b92915050565b60008060408385031215610900576108ff6107e7565b5b600061090e8582860161080d565b925050602061091f858286016108d4565b9150509250929050565b600081519050919050565b600082825260208201905092915050565b6000819050602082019050919050565b61095e816107ec565b82525050565b61096d816108ab565b82525050565b60008115159050919050565b61098881610973565b82525050565b60a0820160008201516109a46000850182610955565b5060208201516109b76020850182610964565b5060408201516109ca6040850182610955565b5060608201516109dd606085018261097f565b5060808201516109f06080850182610955565b50505050565b6000610a02838361098e565b60a08301905092915050565b6000602082019050919050565b6000610a2682610929565b610a308185610934565b9350610a3b83610945565b8060005b83811015610a6c578151610a5388826109f6565b9750610a5e83610a0e565b925050600181019050610a3f565b5085935050505092915050565b60006020820190508181036000830152610a938184610a1b565b905092915050565b7f4e487b7100000000000000000000000000000000000000000000000000000000600052603260045260246000fd5b7f4e487b7100000000000000000000000000000000000000000000000000000000600052601160045260246000fd5b6000610b04826107ec565b91507fffffffffffffffffffffffffffffffffffffffffffffffffffffffffffffffff8203610b3657610b35610aca565b5b600182019050919050565b610b4a816107ec565b82525050565b6000819050919050565b6000610b75610b70610b6b8461084f565b610b50565b61084f565b9050919050565b6000610b8782610b5a565b9050919050565b6000610b9982610b7c565b9050919050565b610ba981610b8e565b82525050565b6000608082019050610bc46000830187610b41565b610bd16020830186610b41565b610bde6040830185610881565b610beb6060830184610ba0565b95945050505050565b6000606082019050610c096000830186610b41565b610c166020830185610b41565b610c236040830184610881565b949350505050565b6000602082019050610c406000830184610b41565b9291505056fea264697066735822122058f654b6abf8e0e429d2c49bbcb434942b141afa8d97a8ffbeb43f7dc56f9eb564736f6c634300080f0033",
  "immutableReferences": {},
  "source": "pragma solidity ^0.8.0;\r\npragma abicoder v2;\r\n\r\ncontract Wallet{\r\n    address[] public owners;\r\n    uint limit;\r\n\r\n    struct Transfer{\r\n        uint amount;\r\n        address payable receiver;\r\n        uint approvals;\r\n        bool hasBeenSent;\r\n        uint id;\r\n    }\r\n\r\n    event TransferRequestCreated(uint _id, uint _amount, address _initiator, address _receiver);\r\n    event ApprovalReceived(uint _id, uint _approvals, address _approver);\r\n    event TransferApproved(uint _id);\r\n\r\n    Transfer[] transferRequests;\r\n\r\n    mapping(address => mapping(uint => bool)) approvals;\r\n    //Should only allow people in the owners list to continue the execution\r\n    modifier onlyOwners(){\r\n        bool owner = false;\r\n        for(uint i=0; i<owners.length; i++){\r\n            if(owners[i] == msg.sender){\r\n                owner = true;\r\n            }\r\n        }\r\n\r\n        require(owner == true);\r\n        _;\r\n    }\r\n\r\n    \r\n    //Should initialize the owners list and the limit\r\n    constructor(address[] memory _owners, uint _limit) {\r\n        owners = _owners;\r\n        limit = _limit;\r\n    }\r\n\r\n    //Empty function\r\n    function deposit() public payable{}\r\n\r\n    //Create an instance of the Transfer struct and add it to the transferRequests array\r\n    function createTransfer(uint _amount, address payable _receiver) public onlyOwners {\r\n        emit TransferRequestCreated(transferRequests.length, _amount, msg.sender, _receiver);\r\n\r\n        transferRequests.push(Transfer(_amount, _receiver, 0, false, transferRequests.length)\r\n        );\r\n\r\n    }\r\n\r\n    //Set your approval for one of the transfer requests.\r\n    //Need to update the Transfer object.\r\n    //Need to update the mapping to record the approval for the msg.sender\r\n    //When the amoount of approvals for a tranfer has reached the limit, this function should send the transfer to the recipient\r\n    //An owner should not be able to vote twice\r\n    //an owner should not be able to vote on a transfer request that has already been sent\r\n    function approve(uint _id) public onlyOwners{\r\n        require(approvals[msg.sender][_id] == false);\r\n        require(transferRequests[_id].hasBeenSent == false);\r\n\r\n        approvals[msg.sender][_id] = true;\r\n        transferRequests[_id].approvals++;\r\n\r\n        emit ApprovalReceived(_id, transferRequests[_id].approvals, msg.sender);\r\n\r\n        if(transferRequests[_id].approvals >= limit){\r\n            transferRequests[_id].hasBeenSent = true;\r\n            transferRequests[_id].receiver.transfer(transferRequests[_id].amount);\r\n            emit TransferApproved(_id);\r\n            \r\n        }\r\n\r\n       \r\n    }\r\n\r\n     //Should return all transfer requests\r\n        function getTransferRequests() public view returns (Transfer[] memory list){\r\n            return transferRequests;\r\n        }\r\n\r\n}",
  "sourcePath": "C:\\Users\\kaz\\OneDrive - #AskBlockchain\\contracts\\contracts\\MultiSigWallet.sol",
  "compiler": {
    "name": "solc",
    "version": "0.8.15+commit.e14f2714.Emscripten.clang"
  },
  "schemaVersion": "3.4.8",
  "updatedAt": "2022-12-12T13:24:54.873Z",
  "devdoc": {
    "kind": "dev",
    "methods": {},
    "version": 1
  },
  "userdoc": {
    "kind": "user",
    "methods": {},
    "version": 1
  }
}